{
  "_format": "hh-sol-artifact-1",
  "contractName": "CovidCovac",
  "sourceName": "contracts/CovidCovac.sol",
  "abi": [
    {
      "anonymous": false,
      "inputs": [
        {
          "indexed": false,
          "internalType": "uint256",
          "name": "id",
          "type": "uint256"
        },
        {
          "indexed": false,
          "internalType": "string",
          "name": "name",
          "type": "string"
        },
        {
          "indexed": false,
          "internalType": "string",
          "name": "nameVacin",
          "type": "string"
        },
        {
          "indexed": false,
          "internalType": "string",
          "name": "dateInjections",
          "type": "string"
        },
        {
          "indexed": false,
          "internalType": "string",
          "name": "insertDate",
          "type": "string"
        },
        {
          "indexed": false,
          "internalType": "address payable",
          "name": "userCreator",
          "type": "address"
        },
        {
          "indexed": false,
          "internalType": "string",
          "name": "cardID",
          "type": "string"
        },
        {
          "indexed": false,
          "internalType": "uint256",
          "name": "gender",
          "type": "uint256"
        },
        {
          "indexed": false,
          "internalType": "string",
          "name": "healID",
          "type": "string"
        },
        {
          "indexed": false,
          "internalType": "string",
          "name": "birthDate",
          "type": "string"
        },
        {
          "indexed": false,
          "internalType": "string",
          "name": "userAddress",
          "type": "string"
        }
      ],
      "name": "CovacCreated",
      "type": "event"
    },
    {
      "inputs": [
        {
          "internalType": "string",
          "name": "a",
          "type": "string"
        },
        {
          "internalType": "string",
          "name": "b",
          "type": "string"
        }
      ],
      "name": "compareStrings",
      "outputs": [
        {
          "internalType": "bool",
          "name": "",
          "type": "bool"
        }
      ],
      "stateMutability": "view",
      "type": "function"
    },
    {
      "inputs": [
        {
          "internalType": "uint256",
          "name": "",
          "type": "uint256"
        }
      ],
      "name": "covac",
      "outputs": [
        {
          "internalType": "uint256",
          "name": "id",
          "type": "uint256"
        },
        {
          "internalType": "string",
          "name": "name",
          "type": "string"
        },
        {
          "internalType": "string",
          "name": "nameVacin",
          "type": "string"
        },
        {
          "internalType": "string",
          "name": "dateInjections",
          "type": "string"
        },
        {
          "internalType": "string",
          "name": "insertDate",
          "type": "string"
        },
        {
          "internalType": "address payable",
          "name": "userCreator",
          "type": "address"
        },
        {
          "internalType": "string",
          "name": "cardID",
          "type": "string"
        },
        {
          "internalType": "uint256",
          "name": "gender",
          "type": "uint256"
        },
        {
          "internalType": "string",
          "name": "healID",
          "type": "string"
        },
        {
          "internalType": "string",
          "name": "birthDate",
          "type": "string"
        },
        {
          "internalType": "string",
          "name": "userAddress",
          "type": "string"
        }
      ],
      "stateMutability": "view",
      "type": "function"
    },
    {
      "inputs": [],
      "name": "covacCount",
      "outputs": [
        {
          "internalType": "uint256",
          "name": "",
          "type": "uint256"
        }
      ],
      "stateMutability": "view",
      "type": "function"
    },
    {
      "inputs": [
        {
          "components": [
            {
              "internalType": "string",
              "name": "name",
              "type": "string"
            },
            {
              "internalType": "string",
              "name": "nameVacin",
              "type": "string"
            },
            {
              "internalType": "string",
              "name": "dateInjections",
              "type": "string"
            },
            {
              "internalType": "string",
              "name": "insertDate",
              "type": "string"
            },
            {
              "internalType": "string",
              "name": "cardID",
              "type": "string"
            },
            {
              "internalType": "uint256",
              "name": "gender",
              "type": "uint256"
            },
            {
              "internalType": "string",
              "name": "healID",
              "type": "string"
            },
            {
              "internalType": "string",
              "name": "birthDate",
              "type": "string"
            },
            {
              "internalType": "string",
              "name": "userAddress",
              "type": "string"
            }
          ],
          "internalType": "struct CovidCovac.userInput",
          "name": "data",
          "type": "tuple"
        }
      ],
      "name": "createCovac",
      "outputs": [],
      "stateMutability": "payable",
      "type": "function"
    },
    {
      "inputs": [],
      "name": "getCovacCount",
      "outputs": [
        {
          "internalType": "uint256",
          "name": "",
          "type": "uint256"
        }
      ],
      "stateMutability": "view",
      "type": "function"
    },
    {
      "inputs": [
        {
          "internalType": "uint256",
          "name": "_id",
          "type": "uint256"
        }
      ],
      "name": "getUserCovac",
      "outputs": [
        {
          "components": [
            {
              "internalType": "uint256",
              "name": "id",
              "type": "uint256"
            },
            {
              "internalType": "string",
              "name": "name",
              "type": "string"
            },
            {
              "internalType": "string",
              "name": "nameVacin",
              "type": "string"
            },
            {
              "internalType": "string",
              "name": "dateInjections",
              "type": "string"
            },
            {
              "internalType": "string",
              "name": "insertDate",
              "type": "string"
            },
            {
              "internalType": "address payable",
              "name": "userCreator",
              "type": "address"
            },
            {
              "internalType": "string",
              "name": "cardID",
              "type": "string"
            },
            {
              "internalType": "uint256",
              "name": "gender",
              "type": "uint256"
            },
            {
              "internalType": "string",
              "name": "healID",
              "type": "string"
            },
            {
              "internalType": "string",
              "name": "birthDate",
              "type": "string"
            },
            {
              "internalType": "string",
              "name": "userAddress",
              "type": "string"
            }
          ],
          "internalType": "struct CovidCovac.CovacInfo[]",
          "name": "",
          "type": "tuple[]"
        }
      ],
      "stateMutability": "view",
      "type": "function"
    },
    {
      "inputs": [
        {
          "internalType": "string",
          "name": "q",
          "type": "string"
        }
      ],
      "name": "search",
      "outputs": [
        {
          "components": [
            {
              "internalType": "uint256",
              "name": "id",
              "type": "uint256"
            },
            {
              "internalType": "string",
              "name": "name",
              "type": "string"
            },
            {
              "internalType": "string",
              "name": "nameVacin",
              "type": "string"
            },
            {
              "internalType": "string",
              "name": "dateInjections",
              "type": "string"
            },
            {
              "internalType": "string",
              "name": "insertDate",
              "type": "string"
            },
            {
              "internalType": "address payable",
              "name": "userCreator",
              "type": "address"
            },
            {
              "internalType": "string",
              "name": "cardID",
              "type": "string"
            },
            {
              "internalType": "uint256",
              "name": "gender",
              "type": "uint256"
            },
            {
              "internalType": "string",
              "name": "healID",
              "type": "string"
            },
            {
              "internalType": "string",
              "name": "birthDate",
              "type": "string"
            },
            {
              "internalType": "string",
              "name": "userAddress",
              "type": "string"
            }
          ],
          "internalType": "struct CovidCovac.CovacInfo[]",
          "name": "",
          "type": "tuple[]"
        }
      ],
      "stateMutability": "view",
      "type": "function"
    }
  ],
  "bytecode": "0x6080604052600060015534801561001557600080fd5b506128dc806100256000396000f3fe6080604052600436106100705760003560e01c806355f468d11161004e57806355f468d1146100f957806361dcd7b814610140578063820ed0861461016b578063bed34bba146101a857610070565b80631ce80a011461007557806344e224cf146100915780635554c942146100bc575b600080fd5b61008f600480360381019061008a91906122cd565b6101e5565b005b34801561009d57600080fd5b506100a6610452565b6040516100b39190612622565b60405180910390f35b3480156100c857600080fd5b506100e360048036038101906100de919061230e565b610458565b6040516100f091906125e5565b60405180910390f35b34801561010557600080fd5b50610120600480360381019061011b919061230e565b6111bb565b6040516101379b9a9998979695949392919061263d565b60405180910390f35b34801561014c57600080fd5b506101556116f5565b6040516101629190612622565b60405180910390f35b34801561017757600080fd5b50610192600480360381019061018d9190612220565b6116ff565b60405161019f91906125e5565b60405180910390f35b3480156101b457600080fd5b506101cf60048036038101906101ca9190612261565b611eb5565b6040516101dc9190612607565b60405180910390f35b6040518061016001604052806001548152602001826000015181526020018260200151815260200182604001518152602001826060015181526020013373ffffffffffffffffffffffffffffffffffffffff168152602001826080015181526020018260a0015181526020018260c0015181526020018260e00151815260200182610100015181525060008060015481526020019081526020016000206000820151816000015560208201518160010190805190602001906102a8929190611f0e565b5060408201518160020190805190602001906102c5929190611f0e565b5060608201518160030190805190602001906102e2929190611f0e565b5060808201518160040190805190602001906102ff929190611f0e565b5060a08201518160050160006101000a81548173ffffffffffffffffffffffffffffffffffffffff021916908373ffffffffffffffffffffffffffffffffffffffff16021790555060c0820151816006019080519060200190610363929190611f0e565b5060e0820151816007015561010082015181600801908051906020019061038b929190611f0e565b506101208201518160090190805190602001906103a9929190611f0e565b5061014082015181600a0190805190602001906103c7929190611f0e565b509050507f463a5b8bfd3e79efa627645c9954a7d9edeb8bc6544c6b05d1d1662af788b81060015482600001518360200151846040015185606001513387608001518860a001518960c001518a60e001518b61010001516040516104359b9a9998979695949392919061263d565b60405180910390a160016000815480929190600101919050555050565b60015481565b6060610462611f8e565b6000808481526020019081526020016000206040518061016001604052908160008201548152602001600182018054600181600116156101000203166002900480601f0160208091040260200160405190810160405280929190818152602001828054600181600116156101000203166002900480156105235780601f106104f857610100808354040283529160200191610523565b820191906000526020600020905b81548152906001019060200180831161050657829003601f168201915b50505050508152602001600282018054600181600116156101000203166002900480601f0160208091040260200160405190810160405280929190818152602001828054600181600116156101000203166002900480156105c55780601f1061059a576101008083540402835291602001916105c5565b820191906000526020600020905b8154815290600101906020018083116105a857829003601f168201915b50505050508152602001600382018054600181600116156101000203166002900480601f0160208091040260200160405190810160405280929190818152602001828054600181600116156101000203166002900480156106675780601f1061063c57610100808354040283529160200191610667565b820191906000526020600020905b81548152906001019060200180831161064a57829003601f168201915b50505050508152602001600482018054600181600116156101000203166002900480601f0160208091040260200160405190810160405280929190818152602001828054600181600116156101000203166002900480156107095780601f106106de57610100808354040283529160200191610709565b820191906000526020600020905b8154815290600101906020018083116106ec57829003601f168201915b505050505081526020016005820160009054906101000a900473ffffffffffffffffffffffffffffffffffffffff1673ffffffffffffffffffffffffffffffffffffffff1673ffffffffffffffffffffffffffffffffffffffff168152602001600682018054600181600116156101000203166002900480601f0160208091040260200160405190810160405280929190818152602001828054600181600116156101000203166002900480156108015780601f106107d657610100808354040283529160200191610801565b820191906000526020600020905b8154815290600101906020018083116107e457829003601f168201915b5050505050815260200160078201548152602001600882018054600181600116156101000203166002900480601f0160208091040260200160405190810160405280929190818152602001828054600181600116156101000203166002900480156108ad5780601f10610882576101008083540402835291602001916108ad565b820191906000526020600020905b81548152906001019060200180831161089057829003601f168201915b50505050508152602001600982018054600181600116156101000203166002900480601f01602080910402602001604051908101604052809291908181526020018280546001816001161561010002031660029004801561094f5780601f106109245761010080835404028352916020019161094f565b820191906000526020600020905b81548152906001019060200180831161093257829003601f168201915b50505050508152602001600a82018054600181600116156101000203166002900480601f0160208091040260200160405190810160405280929190818152602001828054600181600116156101000203166002900480156109f15780601f106109c6576101008083540402835291602001916109f1565b820191906000526020600020905b8154815290600101906020018083116109d457829003601f168201915b50505050508152505090506060600a67ffffffffffffffff81118015610a1657600080fd5b50604051908082528060200260200182016040528015610a5057816020015b610a3d611f8e565b815260200190600190039081610a355790505b5090506000805b6001548110156111af57610b1c6000808381526020019081526020016000206006018054600181600116156101000203166002900480601f016020809104026020016040519081016040528092919081815260200182805460018160011615610100020316600290048015610b0d5780601f10610ae257610100808354040283529160200191610b0d565b820191906000526020600020905b815481529060010190602001808311610af057829003601f168201915b50505050508560c00151611eb5565b80610bdf5750610bde6000808381526020019081526020016000206008018054600181600116156101000203166002900480601f016020809104026020016040519081016040528092919081815260200182805460018160011615610100020316600290048015610bce5780601f10610ba357610100808354040283529160200191610bce565b820191906000526020600020905b815481529060010190602001808311610bb157829003601f168201915b5050505050856101000151611eb5565b5b156111a25760008060008381526020019081526020016000209050806040518061016001604052908160008201548152602001600182018054600181600116156101000203166002900480601f016020809104026020016040519081016040528092919081815260200182805460018160011615610100020316600290048015610caa5780601f10610c7f57610100808354040283529160200191610caa565b820191906000526020600020905b815481529060010190602001808311610c8d57829003601f168201915b50505050508152602001600282018054600181600116156101000203166002900480601f016020809104026020016040519081016040528092919081815260200182805460018160011615610100020316600290048015610d4c5780601f10610d2157610100808354040283529160200191610d4c565b820191906000526020600020905b815481529060010190602001808311610d2f57829003601f168201915b50505050508152602001600382018054600181600116156101000203166002900480601f016020809104026020016040519081016040528092919081815260200182805460018160011615610100020316600290048015610dee5780601f10610dc357610100808354040283529160200191610dee565b820191906000526020600020905b815481529060010190602001808311610dd157829003601f168201915b50505050508152602001600482018054600181600116156101000203166002900480601f016020809104026020016040519081016040528092919081815260200182805460018160011615610100020316600290048015610e905780601f10610e6557610100808354040283529160200191610e90565b820191906000526020600020905b815481529060010190602001808311610e7357829003601f168201915b505050505081526020016005820160009054906101000a900473ffffffffffffffffffffffffffffffffffffffff1673ffffffffffffffffffffffffffffffffffffffff1673ffffffffffffffffffffffffffffffffffffffff168152602001600682018054600181600116156101000203166002900480601f016020809104026020016040519081016040528092919081815260200182805460018160011615610100020316600290048015610f885780601f10610f5d57610100808354040283529160200191610f88565b820191906000526020600020905b815481529060010190602001808311610f6b57829003601f168201915b5050505050815260200160078201548152602001600882018054600181600116156101000203166002900480601f0160208091040260200160405190810160405280929190818152602001828054600181600116156101000203166002900480156110345780601f1061100957610100808354040283529160200191611034565b820191906000526020600020905b81548152906001019060200180831161101757829003601f168201915b50505050508152602001600982018054600181600116156101000203166002900480601f0160208091040260200160405190810160405280929190818152602001828054600181600116156101000203166002900480156110d65780601f106110ab576101008083540402835291602001916110d6565b820191906000526020600020905b8154815290600101906020018083116110b957829003601f168201915b50505050508152602001600a82018054600181600116156101000203166002900480601f0160208091040260200160405190810160405280929190818152602001828054600181600116156101000203166002900480156111785780601f1061114d57610100808354040283529160200191611178565b820191906000526020600020905b81548152906001019060200180831161115b57829003601f168201915b50505050508152505084848151811061118d57fe5b60200260200101819052508280600101935050505b8080600101915050610a57565b50819350505050919050565b6000602052806000526040600020600091509050806000015490806001018054600181600116156101000203166002900480601f01602080910402602001604051908101604052809291908181526020018280546001816001161561010002031660029004801561126d5780601f106112425761010080835404028352916020019161126d565b820191906000526020600020905b81548152906001019060200180831161125057829003601f168201915b505050505090806002018054600181600116156101000203166002900480601f01602080910402602001604051908101604052809291908181526020018280546001816001161561010002031660029004801561130b5780601f106112e05761010080835404028352916020019161130b565b820191906000526020600020905b8154815290600101906020018083116112ee57829003601f168201915b505050505090806003018054600181600116156101000203166002900480601f0160208091040260200160405190810160405280929190818152602001828054600181600116156101000203166002900480156113a95780601f1061137e576101008083540402835291602001916113a9565b820191906000526020600020905b81548152906001019060200180831161138c57829003601f168201915b505050505090806004018054600181600116156101000203166002900480601f0160208091040260200160405190810160405280929190818152602001828054600181600116156101000203166002900480156114475780601f1061141c57610100808354040283529160200191611447565b820191906000526020600020905b81548152906001019060200180831161142a57829003601f168201915b5050505050908060050160009054906101000a900473ffffffffffffffffffffffffffffffffffffffff1690806006018054600181600116156101000203166002900480601f01602080910402602001604051908101604052809291908181526020018280546001816001161561010002031660029004801561150b5780601f106114e05761010080835404028352916020019161150b565b820191906000526020600020905b8154815290600101906020018083116114ee57829003601f168201915b505050505090806007015490806008018054600181600116156101000203166002900480601f0160208091040260200160405190810160405280929190818152602001828054600181600116156101000203166002900480156115af5780601f10611584576101008083540402835291602001916115af565b820191906000526020600020905b81548152906001019060200180831161159257829003601f168201915b505050505090806009018054600181600116156101000203166002900480601f01602080910402602001604051908101604052809291908181526020018280546001816001161561010002031660029004801561164d5780601f106116225761010080835404028352916020019161164d565b820191906000526020600020905b81548152906001019060200180831161163057829003601f168201915b50505050509080600a018054600181600116156101000203166002900480601f0160208091040260200160405190810160405280929190818152602001828054600181600116156101000203166002900480156116eb5780601f106116c0576101008083540402835291602001916116eb565b820191906000526020600020905b8154815290600101906020018083116116ce57829003601f168201915b505050505090508b565b6000600154905090565b606080600a67ffffffffffffffff8111801561171a57600080fd5b5060405190808252806020026020018201604052801561175457816020015b611741611f8e565b8152602001906001900390816117395790505b5090506000805b600154811015611eaa5761181c6000808381526020019081526020016000206006018054600181600116156101000203166002900480601f0160208091040260200160405190810160405280929190818152602001828054600181600116156101000203166002900480156118115780601f106117e657610100808354040283529160200191611811565b820191906000526020600020905b8154815290600101906020018083116117f457829003601f168201915b505050505086611eb5565b806118da57506118d96000808381526020019081526020016000206008018054600181600116156101000203166002900480601f0160208091040260200160405190810160405280929190818152602001828054600181600116156101000203166002900480156118ce5780601f106118a3576101008083540402835291602001916118ce565b820191906000526020600020905b8154815290600101906020018083116118b157829003601f168201915b505050505086611eb5565b5b15611e9d5760008060008381526020019081526020016000209050806040518061016001604052908160008201548152602001600182018054600181600116156101000203166002900480601f0160208091040260200160405190810160405280929190818152602001828054600181600116156101000203166002900480156119a55780601f1061197a576101008083540402835291602001916119a5565b820191906000526020600020905b81548152906001019060200180831161198857829003601f168201915b50505050508152602001600282018054600181600116156101000203166002900480601f016020809104026020016040519081016040528092919081815260200182805460018160011615610100020316600290048015611a475780601f10611a1c57610100808354040283529160200191611a47565b820191906000526020600020905b815481529060010190602001808311611a2a57829003601f168201915b50505050508152602001600382018054600181600116156101000203166002900480601f016020809104026020016040519081016040528092919081815260200182805460018160011615610100020316600290048015611ae95780601f10611abe57610100808354040283529160200191611ae9565b820191906000526020600020905b815481529060010190602001808311611acc57829003601f168201915b50505050508152602001600482018054600181600116156101000203166002900480601f016020809104026020016040519081016040528092919081815260200182805460018160011615610100020316600290048015611b8b5780601f10611b6057610100808354040283529160200191611b8b565b820191906000526020600020905b815481529060010190602001808311611b6e57829003601f168201915b505050505081526020016005820160009054906101000a900473ffffffffffffffffffffffffffffffffffffffff1673ffffffffffffffffffffffffffffffffffffffff1673ffffffffffffffffffffffffffffffffffffffff168152602001600682018054600181600116156101000203166002900480601f016020809104026020016040519081016040528092919081815260200182805460018160011615610100020316600290048015611c835780601f10611c5857610100808354040283529160200191611c83565b820191906000526020600020905b815481529060010190602001808311611c6657829003601f168201915b5050505050815260200160078201548152602001600882018054600181600116156101000203166002900480601f016020809104026020016040519081016040528092919081815260200182805460018160011615610100020316600290048015611d2f5780601f10611d0457610100808354040283529160200191611d2f565b820191906000526020600020905b815481529060010190602001808311611d1257829003601f168201915b50505050508152602001600982018054600181600116156101000203166002900480601f016020809104026020016040519081016040528092919081815260200182805460018160011615610100020316600290048015611dd15780601f10611da657610100808354040283529160200191611dd1565b820191906000526020600020905b815481529060010190602001808311611db457829003601f168201915b50505050508152602001600a82018054600181600116156101000203166002900480601f016020809104026020016040519081016040528092919081815260200182805460018160011615610100020316600290048015611e735780601f10611e4857610100808354040283529160200191611e73565b820191906000526020600020905b815481529060010190602001808311611e5657829003601f168201915b505050505081525050848481518110611e8857fe5b60200260200101819052508280600101935050505b808060010191505061175b565b508192505050919050565b600081604051602001611ec891906125ce565b6040516020818303038152906040528051906020012083604051602001611eef91906125ce565b6040516020818303038152906040528051906020012014905092915050565b828054600181600116156101000203166002900490600052602060002090601f016020900481019282601f10611f4f57805160ff1916838001178555611f7d565b82800160010185558215611f7d579182015b82811115611f7c578251825591602001919060010190611f61565b5b509050611f8a9190611ffe565b5090565b6040518061016001604052806000815260200160608152602001606081526020016060815260200160608152602001600073ffffffffffffffffffffffffffffffffffffffff16815260200160608152602001600081526020016060815260200160608152602001606081525090565b5b80821115612017576000816000905550600101611fff565b5090565b600082601f83011261202c57600080fd5b813561203f61203a82612751565b612720565b9150808252602083016020830185838301111561205b57600080fd5b61206683828461283a565b50505092915050565b6000610120828403121561208257600080fd5b61208d610120612720565b9050600082013567ffffffffffffffff8111156120a957600080fd5b6120b58482850161201b565b600083015250602082013567ffffffffffffffff8111156120d557600080fd5b6120e18482850161201b565b602083015250604082013567ffffffffffffffff81111561210157600080fd5b61210d8482850161201b565b604083015250606082013567ffffffffffffffff81111561212d57600080fd5b6121398482850161201b565b606083015250608082013567ffffffffffffffff81111561215957600080fd5b6121658482850161201b565b60808301525060a06121798482850161220b565b60a08301525060c082013567ffffffffffffffff81111561219957600080fd5b6121a58482850161201b565b60c08301525060e082013567ffffffffffffffff8111156121c557600080fd5b6121d18482850161201b565b60e08301525061010082013567ffffffffffffffff8111156121f257600080fd5b6121fe8482850161201b565b6101008301525092915050565b60008135905061221a8161288f565b92915050565b60006020828403121561223257600080fd5b600082013567ffffffffffffffff81111561224c57600080fd5b6122588482850161201b565b91505092915050565b6000806040838503121561227457600080fd5b600083013567ffffffffffffffff81111561228e57600080fd5b61229a8582860161201b565b925050602083013567ffffffffffffffff8111156122b757600080fd5b6122c38582860161201b565b9150509250929050565b6000602082840312156122df57600080fd5b600082013567ffffffffffffffff8111156122f957600080fd5b6123058482850161206f565b91505092915050565b60006020828403121561232057600080fd5b600061232e8482850161220b565b91505092915050565b60006123438383612490565b905092915050565b612354816127f2565b82525050565b612363816127f2565b82525050565b600061237482612791565b61237e81856127b4565b93508360208202850161239085612781565b8060005b858110156123cc57848403895281516123ad8582612337565b94506123b8836127a7565b925060208a01995050600181019050612394565b50829750879550505050505092915050565b6123e781612804565b82525050565b60006123f88261279c565b61240281856127c5565b9350612412818560208601612849565b61241b8161287e565b840191505092915050565b60006124318261279c565b61243b81856127d6565b935061244b818560208601612849565b6124548161287e565b840191505092915050565b600061246a8261279c565b61247481856127e7565b9350612484818560208601612849565b80840191505092915050565b6000610160830160008301516124a960008601826125b0565b50602083015184820360208601526124c182826123ed565b915050604083015184820360408601526124db82826123ed565b915050606083015184820360608601526124f582826123ed565b9150506080830151848203608086015261250f82826123ed565b91505060a083015161252460a086018261234b565b5060c083015184820360c086015261253c82826123ed565b91505060e083015161255160e08601826125b0565b5061010083015184820361010086015261256b82826123ed565b91505061012083015184820361012086015261258782826123ed565b9150506101408301518482036101408601526125a382826123ed565b9150508091505092915050565b6125b981612830565b82525050565b6125c881612830565b82525050565b60006125da828461245f565b915081905092915050565b600060208201905081810360008301526125ff8184612369565b905092915050565b600060208201905061261c60008301846123de565b92915050565b600060208201905061263760008301846125bf565b92915050565b600061016082019050612653600083018e6125bf565b8181036020830152612665818d612426565b90508181036040830152612679818c612426565b9050818103606083015261268d818b612426565b905081810360808301526126a1818a612426565b90506126b060a083018961235a565b81810360c08301526126c28188612426565b90506126d160e08301876125bf565b8181036101008301526126e48186612426565b90508181036101208301526126f98185612426565b905081810361014083015261270e8184612426565b90509c9b505050505050505050505050565b6000604051905081810181811067ffffffffffffffff821117156127475761274661287c565b5b8060405250919050565b600067ffffffffffffffff82111561276c5761276b61287c565b5b601f19601f8301169050602081019050919050565b6000819050602082019050919050565b600081519050919050565b600081519050919050565b6000602082019050919050565b600082825260208201905092915050565b600082825260208201905092915050565b600082825260208201905092915050565b600081905092915050565b60006127fd82612810565b9050919050565b60008115159050919050565b600073ffffffffffffffffffffffffffffffffffffffff82169050919050565b6000819050919050565b82818337600083830152505050565b60005b8381101561286757808201518184015260208101905061284c565b83811115612876576000848401525b50505050565bfe5b6000601f19601f8301169050919050565b61289881612830565b81146128a357600080fd5b5056fea2646970667358221220793537f05197052d19df6732f46e1d077c5c957d7be77b882877b158861df82f64736f6c63430007030033",
  "linkReferences": {},
  "deployedLinkReferences": {}
}