{
  "_format": "hh-sol-artifact-1",
  "contractName": "CovidCovac",
  "sourceName": "contracts/CovidCovac.sol",
  "abi": [
    {
      "anonymous": false,
      "inputs": [
        {
          "indexed": false,
          "internalType": "uint256",
          "name": "id",
          "type": "uint256"
        },
        {
          "indexed": false,
          "internalType": "string",
          "name": "name",
          "type": "string"
        },
        {
          "indexed": false,
          "internalType": "string",
          "name": "nameVacin",
          "type": "string"
        },
        {
          "indexed": false,
          "internalType": "string",
          "name": "dateInjections",
          "type": "string"
        },
        {
          "indexed": false,
          "internalType": "string",
          "name": "insertDate",
          "type": "string"
        },
        {
          "indexed": false,
          "internalType": "address payable",
          "name": "userCreator",
          "type": "address"
        },
        {
          "indexed": false,
          "internalType": "string",
          "name": "cardID",
          "type": "string"
        },
        {
          "indexed": false,
          "internalType": "uint256",
          "name": "gender",
          "type": "uint256"
        },
        {
          "indexed": false,
          "internalType": "string",
          "name": "healID",
          "type": "string"
        },
        {
          "indexed": false,
          "internalType": "string",
          "name": "birthDate",
          "type": "string"
        },
        {
          "indexed": false,
          "internalType": "string",
          "name": "userAddress",
          "type": "string"
        }
      ],
      "name": "CovacCreated",
      "type": "event"
    },
    {
      "inputs": [
        {
          "internalType": "string",
          "name": "a",
          "type": "string"
        },
        {
          "internalType": "string",
          "name": "b",
          "type": "string"
        }
      ],
      "name": "compareStrings",
      "outputs": [
        {
          "internalType": "bool",
          "name": "",
          "type": "bool"
        }
      ],
      "stateMutability": "view",
      "type": "function"
    },
    {
      "inputs": [
        {
          "internalType": "uint256",
          "name": "",
          "type": "uint256"
        }
      ],
      "name": "covac",
      "outputs": [
        {
          "internalType": "uint256",
          "name": "id",
          "type": "uint256"
        },
        {
          "internalType": "string",
          "name": "name",
          "type": "string"
        },
        {
          "internalType": "string",
          "name": "nameVacin",
          "type": "string"
        },
        {
          "internalType": "string",
          "name": "dateInjections",
          "type": "string"
        },
        {
          "internalType": "string",
          "name": "insertDate",
          "type": "string"
        },
        {
          "internalType": "address payable",
          "name": "userCreator",
          "type": "address"
        },
        {
          "internalType": "string",
          "name": "cardID",
          "type": "string"
        },
        {
          "internalType": "uint256",
          "name": "gender",
          "type": "uint256"
        },
        {
          "internalType": "string",
          "name": "healID",
          "type": "string"
        },
        {
          "internalType": "string",
          "name": "birthDate",
          "type": "string"
        },
        {
          "internalType": "string",
          "name": "userAddress",
          "type": "string"
        }
      ],
      "stateMutability": "view",
      "type": "function"
    },
    {
      "inputs": [],
      "name": "covacCount",
      "outputs": [
        {
          "internalType": "uint256",
          "name": "",
          "type": "uint256"
        }
      ],
      "stateMutability": "view",
      "type": "function"
    },
    {
      "inputs": [
        {
          "components": [
            {
              "internalType": "string",
              "name": "name",
              "type": "string"
            },
            {
              "internalType": "string",
              "name": "nameVacin",
              "type": "string"
            },
            {
              "internalType": "string",
              "name": "dateInjections",
              "type": "string"
            },
            {
              "internalType": "string",
              "name": "insertDate",
              "type": "string"
            },
            {
              "internalType": "string",
              "name": "cardID",
              "type": "string"
            },
            {
              "internalType": "uint256",
              "name": "gender",
              "type": "uint256"
            },
            {
              "internalType": "string",
              "name": "healID",
              "type": "string"
            },
            {
              "internalType": "string",
              "name": "birthDate",
              "type": "string"
            },
            {
              "internalType": "string",
              "name": "userAddress",
              "type": "string"
            }
          ],
          "internalType": "struct CovidCovac.userInput",
          "name": "data",
          "type": "tuple"
        }
      ],
      "name": "createCovac",
      "outputs": [],
      "stateMutability": "payable",
      "type": "function"
    },
    {
      "inputs": [
        {
          "components": [
            {
              "internalType": "string",
              "name": "name",
              "type": "string"
            },
            {
              "internalType": "string",
              "name": "nameVacin",
              "type": "string"
            },
            {
              "internalType": "string",
              "name": "dateInjections",
              "type": "string"
            },
            {
              "internalType": "string",
              "name": "insertDate",
              "type": "string"
            },
            {
              "internalType": "string",
              "name": "cardID",
              "type": "string"
            },
            {
              "internalType": "uint256",
              "name": "gender",
              "type": "uint256"
            },
            {
              "internalType": "string",
              "name": "healID",
              "type": "string"
            },
            {
              "internalType": "string",
              "name": "birthDate",
              "type": "string"
            },
            {
              "internalType": "string",
              "name": "userAddress",
              "type": "string"
            }
          ],
          "internalType": "struct CovidCovac.userInput",
          "name": "data",
          "type": "tuple"
        },
        {
          "internalType": "uint256",
          "name": "id",
          "type": "uint256"
        }
      ],
      "name": "editCovac",
      "outputs": [],
      "stateMutability": "payable",
      "type": "function"
    },
    {
      "inputs": [],
      "name": "getCovacCount",
      "outputs": [
        {
          "internalType": "uint256",
          "name": "",
          "type": "uint256"
        }
      ],
      "stateMutability": "view",
      "type": "function"
    },
    {
      "inputs": [
        {
          "internalType": "uint256",
          "name": "_id",
          "type": "uint256"
        }
      ],
      "name": "getUserCovac",
      "outputs": [
        {
          "components": [
            {
              "internalType": "uint256",
              "name": "id",
              "type": "uint256"
            },
            {
              "internalType": "string",
              "name": "name",
              "type": "string"
            },
            {
              "internalType": "string",
              "name": "nameVacin",
              "type": "string"
            },
            {
              "internalType": "string",
              "name": "dateInjections",
              "type": "string"
            },
            {
              "internalType": "string",
              "name": "insertDate",
              "type": "string"
            },
            {
              "internalType": "address payable",
              "name": "userCreator",
              "type": "address"
            },
            {
              "internalType": "string",
              "name": "cardID",
              "type": "string"
            },
            {
              "internalType": "uint256",
              "name": "gender",
              "type": "uint256"
            },
            {
              "internalType": "string",
              "name": "healID",
              "type": "string"
            },
            {
              "internalType": "string",
              "name": "birthDate",
              "type": "string"
            },
            {
              "internalType": "string",
              "name": "userAddress",
              "type": "string"
            }
          ],
          "internalType": "struct CovidCovac.CovacInfo[]",
          "name": "",
          "type": "tuple[]"
        }
      ],
      "stateMutability": "view",
      "type": "function"
    },
    {
      "inputs": [
        {
          "internalType": "string",
          "name": "q",
          "type": "string"
        }
      ],
      "name": "search",
      "outputs": [
        {
          "components": [
            {
              "internalType": "uint256",
              "name": "id",
              "type": "uint256"
            },
            {
              "internalType": "string",
              "name": "name",
              "type": "string"
            },
            {
              "internalType": "string",
              "name": "nameVacin",
              "type": "string"
            },
            {
              "internalType": "string",
              "name": "dateInjections",
              "type": "string"
            },
            {
              "internalType": "string",
              "name": "insertDate",
              "type": "string"
            },
            {
              "internalType": "address payable",
              "name": "userCreator",
              "type": "address"
            },
            {
              "internalType": "string",
              "name": "cardID",
              "type": "string"
            },
            {
              "internalType": "uint256",
              "name": "gender",
              "type": "uint256"
            },
            {
              "internalType": "string",
              "name": "healID",
              "type": "string"
            },
            {
              "internalType": "string",
              "name": "birthDate",
              "type": "string"
            },
            {
              "internalType": "string",
              "name": "userAddress",
              "type": "string"
            }
          ],
          "internalType": "struct CovidCovac.CovacInfo[]",
          "name": "",
          "type": "tuple[]"
        }
      ],
      "stateMutability": "view",
      "type": "function"
    }
  ],
  "bytecode": "0x6080604052600060015534801561001557600080fd5b50612bad806100256000396000f3fe60806040526004361061007b5760003560e01c806355f468d11161004e57806355f468d11461012057806361dcd7b814610167578063820ed08614610192578063bed34bba146101cf5761007b565b80631ce80a011461008057806333be9f321461009c57806344e224cf146100b85780635554c942146100e3575b600080fd5b61009a6004803603810190610095919061254a565b61020c565b005b6100b660048036038101906100b1919061258b565b610479565b005b3480156100c457600080fd5b506100cd6106cf565b6040516100da91906128f3565b60405180910390f35b3480156100ef57600080fd5b5061010a600480360381019061010591906125df565b6106d5565b60405161011791906128b6565b60405180910390f35b34801561012c57600080fd5b50610147600480360381019061014291906125df565b611438565b60405161015e9b9a9998979695949392919061290e565b60405180910390f35b34801561017357600080fd5b5061017c611972565b60405161018991906128f3565b60405180910390f35b34801561019e57600080fd5b506101b960048036038101906101b4919061249d565b61197c565b6040516101c691906128b6565b60405180910390f35b3480156101db57600080fd5b506101f660048036038101906101f191906124de565b612132565b60405161020391906128d8565b60405180910390f35b6040518061016001604052806001548152602001826000015181526020018260200151815260200182604001518152602001826060015181526020013373ffffffffffffffffffffffffffffffffffffffff168152602001826080015181526020018260a0015181526020018260c0015181526020018260e00151815260200182610100015181525060008060015481526020019081526020016000206000820151816000015560208201518160010190805190602001906102cf92919061218b565b5060408201518160020190805190602001906102ec92919061218b565b50606082015181600301908051906020019061030992919061218b565b50608082015181600401908051906020019061032692919061218b565b5060a08201518160050160006101000a81548173ffffffffffffffffffffffffffffffffffffffff021916908373ffffffffffffffffffffffffffffffffffffffff16021790555060c082015181600601908051906020019061038a92919061218b565b5060e082015181600701556101008201518160080190805190602001906103b292919061218b565b506101208201518160090190805190602001906103d092919061218b565b5061014082015181600a0190805190602001906103ee92919061218b565b509050507f463a5b8bfd3e79efa627645c9954a7d9edeb8bc6544c6b05d1d1662af788b81060015482600001518360200151846040015185606001513387608001518860a001518960c001518a60e001518b610100015160405161045c9b9a9998979695949392919061290e565b60405180910390a160016000815480929190600101919050555050565b604051806101600160405280828152602001836000015181526020018360200151815260200183604001518152602001836060015181526020013373ffffffffffffffffffffffffffffffffffffffff168152602001836080015181526020018360a0015181526020018360c0015181526020018360e00151815260200183610100015181525060008083815260200190815260200160002060008201518160000155602082015181600101908051906020019061053892919061218b565b50604082015181600201908051906020019061055592919061218b565b50606082015181600301908051906020019061057292919061218b565b50608082015181600401908051906020019061058f92919061218b565b5060a08201518160050160006101000a81548173ffffffffffffffffffffffffffffffffffffffff021916908373ffffffffffffffffffffffffffffffffffffffff16021790555060c08201518160060190805190602001906105f392919061218b565b5060e0820151816007015561010082015181600801908051906020019061061b92919061218b565b5061012082015181600901908051906020019061063992919061218b565b5061014082015181600a01908051906020019061065792919061218b565b509050507f463a5b8bfd3e79efa627645c9954a7d9edeb8bc6544c6b05d1d1662af788b8108183600001518460200151856040015186606001513388608001518960a001518a60c001518b60e001518c61010001516040516106c39b9a9998979695949392919061290e565b60405180910390a15050565b60015481565b60606106df61220b565b6000808481526020019081526020016000206040518061016001604052908160008201548152602001600182018054600181600116156101000203166002900480601f0160208091040260200160405190810160405280929190818152602001828054600181600116156101000203166002900480156107a05780601f10610775576101008083540402835291602001916107a0565b820191906000526020600020905b81548152906001019060200180831161078357829003601f168201915b50505050508152602001600282018054600181600116156101000203166002900480601f0160208091040260200160405190810160405280929190818152602001828054600181600116156101000203166002900480156108425780601f1061081757610100808354040283529160200191610842565b820191906000526020600020905b81548152906001019060200180831161082557829003601f168201915b50505050508152602001600382018054600181600116156101000203166002900480601f0160208091040260200160405190810160405280929190818152602001828054600181600116156101000203166002900480156108e45780601f106108b9576101008083540402835291602001916108e4565b820191906000526020600020905b8154815290600101906020018083116108c757829003601f168201915b50505050508152602001600482018054600181600116156101000203166002900480601f0160208091040260200160405190810160405280929190818152602001828054600181600116156101000203166002900480156109865780601f1061095b57610100808354040283529160200191610986565b820191906000526020600020905b81548152906001019060200180831161096957829003601f168201915b505050505081526020016005820160009054906101000a900473ffffffffffffffffffffffffffffffffffffffff1673ffffffffffffffffffffffffffffffffffffffff1673ffffffffffffffffffffffffffffffffffffffff168152602001600682018054600181600116156101000203166002900480601f016020809104026020016040519081016040528092919081815260200182805460018160011615610100020316600290048015610a7e5780601f10610a5357610100808354040283529160200191610a7e565b820191906000526020600020905b815481529060010190602001808311610a6157829003601f168201915b5050505050815260200160078201548152602001600882018054600181600116156101000203166002900480601f016020809104026020016040519081016040528092919081815260200182805460018160011615610100020316600290048015610b2a5780601f10610aff57610100808354040283529160200191610b2a565b820191906000526020600020905b815481529060010190602001808311610b0d57829003601f168201915b50505050508152602001600982018054600181600116156101000203166002900480601f016020809104026020016040519081016040528092919081815260200182805460018160011615610100020316600290048015610bcc5780601f10610ba157610100808354040283529160200191610bcc565b820191906000526020600020905b815481529060010190602001808311610baf57829003601f168201915b50505050508152602001600a82018054600181600116156101000203166002900480601f016020809104026020016040519081016040528092919081815260200182805460018160011615610100020316600290048015610c6e5780601f10610c4357610100808354040283529160200191610c6e565b820191906000526020600020905b815481529060010190602001808311610c5157829003601f168201915b50505050508152505090506060600a67ffffffffffffffff81118015610c9357600080fd5b50604051908082528060200260200182016040528015610ccd57816020015b610cba61220b565b815260200190600190039081610cb25790505b5090506000805b60015481101561142c57610d996000808381526020019081526020016000206006018054600181600116156101000203166002900480601f016020809104026020016040519081016040528092919081815260200182805460018160011615610100020316600290048015610d8a5780601f10610d5f57610100808354040283529160200191610d8a565b820191906000526020600020905b815481529060010190602001808311610d6d57829003601f168201915b50505050508560c00151612132565b80610e5c5750610e5b6000808381526020019081526020016000206008018054600181600116156101000203166002900480601f016020809104026020016040519081016040528092919081815260200182805460018160011615610100020316600290048015610e4b5780601f10610e2057610100808354040283529160200191610e4b565b820191906000526020600020905b815481529060010190602001808311610e2e57829003601f168201915b5050505050856101000151612132565b5b1561141f5760008060008381526020019081526020016000209050806040518061016001604052908160008201548152602001600182018054600181600116156101000203166002900480601f016020809104026020016040519081016040528092919081815260200182805460018160011615610100020316600290048015610f275780601f10610efc57610100808354040283529160200191610f27565b820191906000526020600020905b815481529060010190602001808311610f0a57829003601f168201915b50505050508152602001600282018054600181600116156101000203166002900480601f016020809104026020016040519081016040528092919081815260200182805460018160011615610100020316600290048015610fc95780601f10610f9e57610100808354040283529160200191610fc9565b820191906000526020600020905b815481529060010190602001808311610fac57829003601f168201915b50505050508152602001600382018054600181600116156101000203166002900480601f01602080910402602001604051908101604052809291908181526020018280546001816001161561010002031660029004801561106b5780601f106110405761010080835404028352916020019161106b565b820191906000526020600020905b81548152906001019060200180831161104e57829003601f168201915b50505050508152602001600482018054600181600116156101000203166002900480601f01602080910402602001604051908101604052809291908181526020018280546001816001161561010002031660029004801561110d5780601f106110e25761010080835404028352916020019161110d565b820191906000526020600020905b8154815290600101906020018083116110f057829003601f168201915b505050505081526020016005820160009054906101000a900473ffffffffffffffffffffffffffffffffffffffff1673ffffffffffffffffffffffffffffffffffffffff1673ffffffffffffffffffffffffffffffffffffffff168152602001600682018054600181600116156101000203166002900480601f0160208091040260200160405190810160405280929190818152602001828054600181600116156101000203166002900480156112055780601f106111da57610100808354040283529160200191611205565b820191906000526020600020905b8154815290600101906020018083116111e857829003601f168201915b5050505050815260200160078201548152602001600882018054600181600116156101000203166002900480601f0160208091040260200160405190810160405280929190818152602001828054600181600116156101000203166002900480156112b15780601f10611286576101008083540402835291602001916112b1565b820191906000526020600020905b81548152906001019060200180831161129457829003601f168201915b50505050508152602001600982018054600181600116156101000203166002900480601f0160208091040260200160405190810160405280929190818152602001828054600181600116156101000203166002900480156113535780601f1061132857610100808354040283529160200191611353565b820191906000526020600020905b81548152906001019060200180831161133657829003601f168201915b50505050508152602001600a82018054600181600116156101000203166002900480601f0160208091040260200160405190810160405280929190818152602001828054600181600116156101000203166002900480156113f55780601f106113ca576101008083540402835291602001916113f5565b820191906000526020600020905b8154815290600101906020018083116113d857829003601f168201915b50505050508152505084848151811061140a57fe5b60200260200101819052508280600101935050505b8080600101915050610cd4565b50819350505050919050565b6000602052806000526040600020600091509050806000015490806001018054600181600116156101000203166002900480601f0160208091040260200160405190810160405280929190818152602001828054600181600116156101000203166002900480156114ea5780601f106114bf576101008083540402835291602001916114ea565b820191906000526020600020905b8154815290600101906020018083116114cd57829003601f168201915b505050505090806002018054600181600116156101000203166002900480601f0160208091040260200160405190810160405280929190818152602001828054600181600116156101000203166002900480156115885780601f1061155d57610100808354040283529160200191611588565b820191906000526020600020905b81548152906001019060200180831161156b57829003601f168201915b505050505090806003018054600181600116156101000203166002900480601f0160208091040260200160405190810160405280929190818152602001828054600181600116156101000203166002900480156116265780601f106115fb57610100808354040283529160200191611626565b820191906000526020600020905b81548152906001019060200180831161160957829003601f168201915b505050505090806004018054600181600116156101000203166002900480601f0160208091040260200160405190810160405280929190818152602001828054600181600116156101000203166002900480156116c45780601f10611699576101008083540402835291602001916116c4565b820191906000526020600020905b8154815290600101906020018083116116a757829003601f168201915b5050505050908060050160009054906101000a900473ffffffffffffffffffffffffffffffffffffffff1690806006018054600181600116156101000203166002900480601f0160208091040260200160405190810160405280929190818152602001828054600181600116156101000203166002900480156117885780601f1061175d57610100808354040283529160200191611788565b820191906000526020600020905b81548152906001019060200180831161176b57829003601f168201915b505050505090806007015490806008018054600181600116156101000203166002900480601f01602080910402602001604051908101604052809291908181526020018280546001816001161561010002031660029004801561182c5780601f106118015761010080835404028352916020019161182c565b820191906000526020600020905b81548152906001019060200180831161180f57829003601f168201915b505050505090806009018054600181600116156101000203166002900480601f0160208091040260200160405190810160405280929190818152602001828054600181600116156101000203166002900480156118ca5780601f1061189f576101008083540402835291602001916118ca565b820191906000526020600020905b8154815290600101906020018083116118ad57829003601f168201915b50505050509080600a018054600181600116156101000203166002900480601f0160208091040260200160405190810160405280929190818152602001828054600181600116156101000203166002900480156119685780601f1061193d57610100808354040283529160200191611968565b820191906000526020600020905b81548152906001019060200180831161194b57829003601f168201915b505050505090508b565b6000600154905090565b606080600a67ffffffffffffffff8111801561199757600080fd5b506040519080825280602002602001820160405280156119d157816020015b6119be61220b565b8152602001906001900390816119b65790505b5090506000805b60015481101561212757611a996000808381526020019081526020016000206006018054600181600116156101000203166002900480601f016020809104026020016040519081016040528092919081815260200182805460018160011615610100020316600290048015611a8e5780601f10611a6357610100808354040283529160200191611a8e565b820191906000526020600020905b815481529060010190602001808311611a7157829003601f168201915b505050505086612132565b80611b575750611b566000808381526020019081526020016000206008018054600181600116156101000203166002900480601f016020809104026020016040519081016040528092919081815260200182805460018160011615610100020316600290048015611b4b5780601f10611b2057610100808354040283529160200191611b4b565b820191906000526020600020905b815481529060010190602001808311611b2e57829003601f168201915b505050505086612132565b5b1561211a5760008060008381526020019081526020016000209050806040518061016001604052908160008201548152602001600182018054600181600116156101000203166002900480601f016020809104026020016040519081016040528092919081815260200182805460018160011615610100020316600290048015611c225780601f10611bf757610100808354040283529160200191611c22565b820191906000526020600020905b815481529060010190602001808311611c0557829003601f168201915b50505050508152602001600282018054600181600116156101000203166002900480601f016020809104026020016040519081016040528092919081815260200182805460018160011615610100020316600290048015611cc45780601f10611c9957610100808354040283529160200191611cc4565b820191906000526020600020905b815481529060010190602001808311611ca757829003601f168201915b50505050508152602001600382018054600181600116156101000203166002900480601f016020809104026020016040519081016040528092919081815260200182805460018160011615610100020316600290048015611d665780601f10611d3b57610100808354040283529160200191611d66565b820191906000526020600020905b815481529060010190602001808311611d4957829003601f168201915b50505050508152602001600482018054600181600116156101000203166002900480601f016020809104026020016040519081016040528092919081815260200182805460018160011615610100020316600290048015611e085780601f10611ddd57610100808354040283529160200191611e08565b820191906000526020600020905b815481529060010190602001808311611deb57829003601f168201915b505050505081526020016005820160009054906101000a900473ffffffffffffffffffffffffffffffffffffffff1673ffffffffffffffffffffffffffffffffffffffff1673ffffffffffffffffffffffffffffffffffffffff168152602001600682018054600181600116156101000203166002900480601f016020809104026020016040519081016040528092919081815260200182805460018160011615610100020316600290048015611f005780601f10611ed557610100808354040283529160200191611f00565b820191906000526020600020905b815481529060010190602001808311611ee357829003601f168201915b5050505050815260200160078201548152602001600882018054600181600116156101000203166002900480601f016020809104026020016040519081016040528092919081815260200182805460018160011615610100020316600290048015611fac5780601f10611f8157610100808354040283529160200191611fac565b820191906000526020600020905b815481529060010190602001808311611f8f57829003601f168201915b50505050508152602001600982018054600181600116156101000203166002900480601f01602080910402602001604051908101604052809291908181526020018280546001816001161561010002031660029004801561204e5780601f106120235761010080835404028352916020019161204e565b820191906000526020600020905b81548152906001019060200180831161203157829003601f168201915b50505050508152602001600a82018054600181600116156101000203166002900480601f0160208091040260200160405190810160405280929190818152602001828054600181600116156101000203166002900480156120f05780601f106120c5576101008083540402835291602001916120f0565b820191906000526020600020905b8154815290600101906020018083116120d357829003601f168201915b50505050508152505084848151811061210557fe5b60200260200101819052508280600101935050505b80806001019150506119d8565b508192505050919050565b600081604051602001612145919061289f565b604051602081830303815290604052805190602001208360405160200161216c919061289f565b6040516020818303038152906040528051906020012014905092915050565b828054600181600116156101000203166002900490600052602060002090601f016020900481019282601f106121cc57805160ff19168380011785556121fa565b828001600101855582156121fa579182015b828111156121f95782518255916020019190600101906121de565b5b509050612207919061227b565b5090565b6040518061016001604052806000815260200160608152602001606081526020016060815260200160608152602001600073ffffffffffffffffffffffffffffffffffffffff16815260200160608152602001600081526020016060815260200160608152602001606081525090565b5b8082111561229457600081600090555060010161227c565b5090565b600082601f8301126122a957600080fd5b81356122bc6122b782612a22565b6129f1565b915080825260208301602083018583830111156122d857600080fd5b6122e3838284612b0b565b50505092915050565b600061012082840312156122ff57600080fd5b61230a6101206129f1565b9050600082013567ffffffffffffffff81111561232657600080fd5b61233284828501612298565b600083015250602082013567ffffffffffffffff81111561235257600080fd5b61235e84828501612298565b602083015250604082013567ffffffffffffffff81111561237e57600080fd5b61238a84828501612298565b604083015250606082013567ffffffffffffffff8111156123aa57600080fd5b6123b684828501612298565b606083015250608082013567ffffffffffffffff8111156123d657600080fd5b6123e284828501612298565b60808301525060a06123f684828501612488565b60a08301525060c082013567ffffffffffffffff81111561241657600080fd5b61242284828501612298565b60c08301525060e082013567ffffffffffffffff81111561244257600080fd5b61244e84828501612298565b60e08301525061010082013567ffffffffffffffff81111561246f57600080fd5b61247b84828501612298565b6101008301525092915050565b60008135905061249781612b60565b92915050565b6000602082840312156124af57600080fd5b600082013567ffffffffffffffff8111156124c957600080fd5b6124d584828501612298565b91505092915050565b600080604083850312156124f157600080fd5b600083013567ffffffffffffffff81111561250b57600080fd5b61251785828601612298565b925050602083013567ffffffffffffffff81111561253457600080fd5b61254085828601612298565b9150509250929050565b60006020828403121561255c57600080fd5b600082013567ffffffffffffffff81111561257657600080fd5b612582848285016122ec565b91505092915050565b6000806040838503121561259e57600080fd5b600083013567ffffffffffffffff8111156125b857600080fd5b6125c4858286016122ec565b92505060206125d585828601612488565b9150509250929050565b6000602082840312156125f157600080fd5b60006125ff84828501612488565b91505092915050565b60006126148383612761565b905092915050565b61262581612ac3565b82525050565b61263481612ac3565b82525050565b600061264582612a62565b61264f8185612a85565b93508360208202850161266185612a52565b8060005b8581101561269d578484038952815161267e8582612608565b945061268983612a78565b925060208a01995050600181019050612665565b50829750879550505050505092915050565b6126b881612ad5565b82525050565b60006126c982612a6d565b6126d38185612a96565b93506126e3818560208601612b1a565b6126ec81612b4f565b840191505092915050565b600061270282612a6d565b61270c8185612aa7565b935061271c818560208601612b1a565b61272581612b4f565b840191505092915050565b600061273b82612a6d565b6127458185612ab8565b9350612755818560208601612b1a565b80840191505092915050565b60006101608301600083015161277a6000860182612881565b506020830151848203602086015261279282826126be565b915050604083015184820360408601526127ac82826126be565b915050606083015184820360608601526127c682826126be565b915050608083015184820360808601526127e082826126be565b91505060a08301516127f560a086018261261c565b5060c083015184820360c086015261280d82826126be565b91505060e083015161282260e0860182612881565b5061010083015184820361010086015261283c82826126be565b91505061012083015184820361012086015261285882826126be565b91505061014083015184820361014086015261287482826126be565b9150508091505092915050565b61288a81612b01565b82525050565b61289981612b01565b82525050565b60006128ab8284612730565b915081905092915050565b600060208201905081810360008301526128d0818461263a565b905092915050565b60006020820190506128ed60008301846126af565b92915050565b60006020820190506129086000830184612890565b92915050565b600061016082019050612924600083018e612890565b8181036020830152612936818d6126f7565b9050818103604083015261294a818c6126f7565b9050818103606083015261295e818b6126f7565b90508181036080830152612972818a6126f7565b905061298160a083018961262b565b81810360c083015261299381886126f7565b90506129a260e0830187612890565b8181036101008301526129b581866126f7565b90508181036101208301526129ca81856126f7565b90508181036101408301526129df81846126f7565b90509c9b505050505050505050505050565b6000604051905081810181811067ffffffffffffffff82111715612a1857612a17612b4d565b5b8060405250919050565b600067ffffffffffffffff821115612a3d57612a3c612b4d565b5b601f19601f8301169050602081019050919050565b6000819050602082019050919050565b600081519050919050565b600081519050919050565b6000602082019050919050565b600082825260208201905092915050565b600082825260208201905092915050565b600082825260208201905092915050565b600081905092915050565b6000612ace82612ae1565b9050919050565b60008115159050919050565b600073ffffffffffffffffffffffffffffffffffffffff82169050919050565b6000819050919050565b82818337600083830152505050565b60005b83811015612b38578082015181840152602081019050612b1d565b83811115612b47576000848401525b50505050565bfe5b6000601f19601f8301169050919050565b612b6981612b01565b8114612b7457600080fd5b5056fea26469706673582212206ed996be2e76d468088b34e5d312e4c508ad50bf9aff053db23559d441860a0464736f6c63430007030033",
  "linkReferences": {},
  "deployedLinkReferences": {}
}